{
  "_format": "hh3-artifact-1",
  "contractName": "CipherBloomJudge",
  "sourceName": "contracts/CipherBloomJudge.sol",
  "abi": [
    {
      "inputs": [],
      "name": "AlreadyFinalized",
      "type": "error"
    },
    {
      "inputs": [],
      "name": "AlreadyJudged",
      "type": "error"
    },
    {
      "inputs": [],
      "name": "AlreadyPlanted",
      "type": "error"
    },
    {
      "inputs": [],
      "name": "AlreadyRevealed",
      "type": "error"
    },
    {
      "inputs": [],
      "name": "BadAnswerLength",
      "type": "error"
    },
    {
      "inputs": [],
      "name": "BadIndex",
      "type": "error"
    },
    {
      "inputs": [],
      "name": "BadWindow",
      "type": "error"
    },
    {
      "inputs": [],
      "name": "CannotReclaim",
      "type": "error"
    },
    {
      "inputs": [],
      "name": "EmptyShell",
      "type": "error"
    },
    {
      "inputs": [],
      "name": "NoBlooms",
      "type": "error"
    },
    {
      "inputs": [],
      "name": "NoSeed",
      "type": "error"
    },
    {
      "inputs": [],
      "name": "NotJudged",
      "type": "error"
    },
    {
      "inputs": [],
      "name": "NotOwner",
      "type": "error"
    },
    {
      "inputs": [],
      "name": "PayoutFailed",
      "type": "error"
    },
    {
      "inputs": [],
      "name": "PlantingClosed",
      "type": "error"
    },
    {
      "inputs": [],
      "name": "RewardRequired",
      "type": "error"
    },
    {
      "inputs": [],
      "name": "ShellMismatch",
      "type": "error"
    },
    {
      "inputs": [],
      "name": "SproutClosed",
      "type": "error"
    },
    {
      "inputs": [],
      "name": "SproutNotFinished",
      "type": "error"
    },
    {
      "inputs": [],
      "name": "SproutNotOpen",
      "type": "error"
    },
    {
      "inputs": [],
      "name": "TooManySeeds",
      "type": "error"
    },
    {
      "inputs": [],
      "name": "UnknownBounty",
      "type": "error"
    },
    {
      "inputs": [],
      "name": "WinnerNotRevealed",
      "type": "error"
    },
    {
      "anonymous": false,
      "inputs": [
        {
          "indexed": true,
          "internalType": "uint256",
          "name": "bountyId",
          "type": "uint256"
        },
        {
          "indexed": true,
          "internalType": "address",
          "name": "owner",
          "type": "address"
        },
        {
          "indexed": false,
          "internalType": "string",
          "name": "title",
          "type": "string"
        },
        {
          "indexed": false,
          "internalType": "uint256",
          "name": "reward",
          "type": "uint256"
        },
        {
          "indexed": false,
          "internalType": "uint64",
          "name": "plantClose",
          "type": "uint64"
        },
        {
          "indexed": false,
          "internalType": "uint64",
          "name": "sproutClose",
          "type": "uint64"
        }
      ],
      "name": "BountyPlanted",
      "type": "event"
    },
    {
      "anonymous": false,
      "inputs": [
        {
          "indexed": true,
          "internalType": "uint256",
          "name": "bountyId",
          "type": "uint256"
        },
        {
          "indexed": false,
          "internalType": "uint256",
          "name": "bloomCount",
          "type": "uint256"
        },
        {
          "indexed": false,
          "internalType": "bytes",
          "name": "aiVerdict",
          "type": "bytes"
        }
      ],
      "name": "GardenJudged",
      "type": "event"
    },
    {
      "anonymous": false,
      "inputs": [
        {
          "indexed": true,
          "internalType": "uint256",
          "name": "bountyId",
          "type": "uint256"
        },
        {
          "indexed": true,
          "internalType": "address",
          "name": "owner",
          "type": "address"
        },
        {
          "indexed": false,
          "internalType": "uint256",
          "name": "reward",
          "type": "uint256"
        }
      ],
      "name": "RewardReclaimed",
      "type": "event"
    },
    {
      "anonymous": false,
      "inputs": [
        {
          "indexed": true,
          "internalType": "uint256",
          "name": "bountyId",
          "type": "uint256"
        },
        {
          "indexed": true,
          "internalType": "uint256",
          "name": "seedIndex",
          "type": "uint256"
        },
        {
          "indexed": true,
          "internalType": "address",
          "name": "author",
          "type": "address"
        }
      ],
      "name": "SeedBloomed",
      "type": "event"
    },
    {
      "anonymous": false,
      "inputs": [
        {
          "indexed": true,
          "internalType": "uint256",
          "name": "bountyId",
          "type": "uint256"
        },
        {
          "indexed": true,
          "internalType": "uint256",
          "name": "seedIndex",
          "type": "uint256"
        },
        {
          "indexed": true,
          "internalType": "address",
          "name": "author",
          "type": "address"
        },
        {
          "indexed": false,
          "internalType": "bytes32",
          "name": "shell",
          "type": "bytes32"
        }
      ],
      "name": "SeedSealed",
      "type": "event"
    },
    {
      "anonymous": false,
      "inputs": [
        {
          "indexed": true,
          "internalType": "uint256",
          "name": "bountyId",
          "type": "uint256"
        },
        {
          "indexed": true,
          "internalType": "uint256",
          "name": "winner",
          "type": "uint256"
        },
        {
          "indexed": true,
          "internalType": "address",
          "name": "author",
          "type": "address"
        },
        {
          "indexed": false,
          "internalType": "uint256",
          "name": "reward",
          "type": "uint256"
        }
      ],
      "name": "WinnerHarvested",
      "type": "event"
    },
    {
      "inputs": [],
      "name": "MAX_ANSWER_BYTES",
      "outputs": [
        {
          "internalType": "uint256",
          "name": "",
          "type": "uint256"
        }
      ],
      "stateMutability": "view",
      "type": "function"
    },
    {
      "inputs": [],
      "name": "MAX_SEEDS",
      "outputs": [
        {
          "internalType": "uint256",
          "name": "",
          "type": "uint256"
        }
      ],
      "stateMutability": "view",
      "type": "function"
    },
    {
      "inputs": [],
      "name": "NO_WINNER",
      "outputs": [
        {
          "internalType": "uint256",
          "name": "",
          "type": "uint256"
        }
      ],
      "stateMutability": "view",
      "type": "function"
    },
    {
      "inputs": [],
      "name": "RITUAL_WALLET",
      "outputs": [
        {
          "internalType": "contract IRitualWallet",
          "name": "",
          "type": "address"
        }
      ],
      "stateMutability": "view",
      "type": "function"
    },
    {
      "inputs": [
        {
          "internalType": "string",
          "name": "answer",
          "type": "string"
        },
        {
          "internalType": "bytes32",
          "name": "salt",
          "type": "bytes32"
        },
        {
          "internalType": "address",
          "name": "author",
          "type": "address"
        },
        {
          "internalType": "uint256",
          "name": "bountyId",
          "type": "uint256"
        }
      ],
      "name": "computeCommitment",
      "outputs": [
        {
          "internalType": "bytes32",
          "name": "",
          "type": "bytes32"
        }
      ],
      "stateMutability": "pure",
      "type": "function"
    },
    {
      "inputs": [
        {
          "internalType": "string",
          "name": "title",
          "type": "string"
        },
        {
          "internalType": "string",
          "name": "rubric",
          "type": "string"
        },
        {
          "internalType": "uint256",
          "name": "submissionDeadline",
          "type": "uint256"
        },
        {
          "internalType": "uint256",
          "name": "revealDeadline",
          "type": "uint256"
        }
      ],
      "name": "createBounty",
      "outputs": [
        {
          "internalType": "uint256",
          "name": "bountyId",
          "type": "uint256"
        }
      ],
      "stateMutability": "payable",
      "type": "function"
    },
    {
      "inputs": [
        {
          "internalType": "uint256",
          "name": "bountyId",
          "type": "uint256"
        }
      ],
      "name": "entryCount",
      "outputs": [
        {
          "internalType": "uint256",
          "name": "",
          "type": "uint256"
        }
      ],
      "stateMutability": "view",
      "type": "function"
    },
    {
      "inputs": [
        {
          "internalType": "uint256",
          "name": "bountyId",
          "type": "uint256"
        },
        {
          "internalType": "address",
          "name": "author",
          "type": "address"
        }
      ],
      "name": "entrySlot",
      "outputs": [
        {
          "internalType": "uint256",
          "name": "",
          "type": "uint256"
        }
      ],
      "stateMutability": "view",
      "type": "function"
    },
    {
      "inputs": [
        {
          "internalType": "uint256",
          "name": "bountyId",
          "type": "uint256"
        },
        {
          "internalType": "uint256",
          "name": "winnerIndex",
          "type": "uint256"
        }
      ],
      "name": "finalizeWinner",
      "outputs": [],
      "stateMutability": "nonpayable",
      "type": "function"
    },
    {
      "inputs": [
        {
          "internalType": "uint256",
          "name": "bountyId",
          "type": "uint256"
        }
      ],
      "name": "getBounty",
      "outputs": [
        {
          "internalType": "address",
          "name": "owner",
          "type": "address"
        },
        {
          "internalType": "string",
          "name": "title",
          "type": "string"
        },
        {
          "internalType": "string",
          "name": "rubric",
          "type": "string"
        },
        {
          "internalType": "uint256",
          "name": "reward",
          "type": "uint256"
        },
        {
          "internalType": "uint256",
          "name": "submissionDeadline",
          "type": "uint256"
        },
        {
          "internalType": "uint256",
          "name": "revealDeadline",
          "type": "uint256"
        },
        {
          "internalType": "bool",
          "name": "judged",
          "type": "bool"
        },
        {
          "internalType": "bool",
          "name": "finalized",
          "type": "bool"
        },
        {
          "internalType": "uint256",
          "name": "submissionCount",
          "type": "uint256"
        },
        {
          "internalType": "uint256",
          "name": "revealedCount",
          "type": "uint256"
        },
        {
          "internalType": "uint256",
          "name": "winnerIndex",
          "type": "uint256"
        },
        {
          "internalType": "bytes",
          "name": "aiVerdict",
          "type": "bytes"
        }
      ],
      "stateMutability": "view",
      "type": "function"
    },
    {
      "inputs": [
        {
          "internalType": "uint256",
          "name": "bountyId",
          "type": "uint256"
        },
        {
          "internalType": "uint256",
          "name": "index",
          "type": "uint256"
        }
      ],
      "name": "getSubmission",
      "outputs": [
        {
          "internalType": "address",
          "name": "author",
          "type": "address"
        },
        {
          "internalType": "bytes32",
          "name": "commitment",
          "type": "bytes32"
        },
        {
          "internalType": "bool",
          "name": "revealed",
          "type": "bool"
        },
        {
          "internalType": "string",
          "name": "answer",
          "type": "string"
        }
      ],
      "stateMutability": "view",
      "type": "function"
    },
    {
      "inputs": [
        {
          "internalType": "uint256",
          "name": "bountyId",
          "type": "uint256"
        },
        {
          "internalType": "bytes",
          "name": "llmInput",
          "type": "bytes"
        }
      ],
      "name": "judgeAll",
      "outputs": [],
      "stateMutability": "nonpayable",
      "type": "function"
    },
    {
      "inputs": [],
      "name": "nextBountyId",
      "outputs": [
        {
          "internalType": "uint256",
          "name": "",
          "type": "uint256"
        }
      ],
      "stateMutability": "view",
      "type": "function"
    },
    {
      "inputs": [
        {
          "internalType": "uint256",
          "name": "bountyId",
          "type": "uint256"
        }
      ],
      "name": "phaseOf",
      "outputs": [
        {
          "internalType": "enum CipherBloomJudge.Phase",
          "name": "",
          "type": "uint8"
        }
      ],
      "stateMutability": "view",
      "type": "function"
    },
    {
      "inputs": [
        {
          "internalType": "uint256",
          "name": "bountyId",
          "type": "uint256"
        }
      ],
      "name": "reclaimReward",
      "outputs": [],
      "stateMutability": "nonpayable",
      "type": "function"
    },
    {
      "inputs": [
        {
          "internalType": "uint256",
          "name": "bountyId",
          "type": "uint256"
        },
        {
          "internalType": "string",
          "name": "answer",
          "type": "string"
        },
        {
          "internalType": "bytes32",
          "name": "salt",
          "type": "bytes32"
        }
      ],
      "name": "revealAnswer",
      "outputs": [],
      "stateMutability": "nonpayable",
      "type": "function"
    },
    {
      "inputs": [
        {
          "internalType": "uint256",
          "name": "bountyId",
          "type": "uint256"
        },
        {
          "internalType": "bytes32",
          "name": "commitment",
          "type": "bytes32"
        }
      ],
      "name": "submitCommitment",
      "outputs": [],
      "stateMutability": "nonpayable",
      "type": "function"
    }
  ],
  "bytecode": "0x6080806040523461001a5760015f556117f8908161001f8239f35b5f80fdfe60806040526004361015610011575f80fd5b5f3560e01c80630606d17a146101245780631d1b039c1461011f5780631fd0fa271461011a57806349704065146101155780635a7722f1146101105780639a243ebf1461010b578063b7ed707114610106578063ca9b5b2a14610101578063cb655fb6146100fc578063d5198a71146100f7578063d8964ee9146100f2578063e29beab5146100ed578063e31202c0146100e8578063e6a3d9dc146100e3578063ebe56eee146100de578063ee8c4bbf146100d95763fd14fad4146100d4575f80fd5b610f90565b610eda565b610e41565b610cba565b610b2f565b6109c8565b610811565b610633565b6105aa565b61054f565b610496565b6103c0565b61020f565b6101f3565b61019e565b610143565b3461013f575f36600319011261013f5760206040515f198152f35b5f80fd5b3461013f57602036600319011261013f576004355f818152600160205260409020546001600160a01b03161561018c575f5260016020526020600860405f200154604051908152f35b604051633c58dd7f60e11b8152600490fd5b3461013f57604036600319011261013f576024356001600160a01b038116810361013f576101ea6020916004355f526002835260405f209060018060a01b03165f5260205260405f2090565b54604051908152f35b3461013f575f36600319011261013f5760206040516107d08152f35b3461013f5760408060031936011261013f57600480355f81815260016020528390205460243592906001600160a01b03908116156103b157825f52600160205280855f20541633036103a25761026d835f52600160205260405f2090565b82810190815460ff8160801c16156103925760881c60ff166103825760088101805487101561037257866102a091610fac565b50916102b76102b3600285015460ff1690565b1590565b61036257805460ff60881b1916600160881b17905560039086600582015501925f845494555f808080876103036102f76102f7895460018060a01b031690565b6001600160a01b031690565b5af161030d61106f565b501561035457505494519182529093166001600160a01b0316927f81eef5d38b038c9700066217f62fc75b092729675244ab81e38fffb7f609c5b09080602081015b0390a4005b8651630ec6ac4160e21b8152fd5b875163605c0ac360e01b81528590fd5b875163779ffa5760e11b81528590fd5b865163475a253560e01b81528490fd5b875163c94618f360e01b81528590fd5b5083516330cd747160e01b8152fd5b508351633c58dd7f60e11b8152fd5b3461013f57602036600319011261013f576004355f818152600160205260409020546001600160a01b03161561018c576103f99061109e565b604051600582101561040c576020918152f35b634e487b7160e01b5f52602160045260245ffd5b5f5b8381106104315750505f910152565b8181015183820152602001610422565b9060209161045a81518092818552858086019101610420565b601f01601f1916010190565b9092608092610493959460018060a01b031683526020830152151560408201528160608201520190610441565b90565b3461013f5760408060031936011261013f576004355f8181526001602052829020546001600160a01b03916024359183161561053e575f5260016020526008835f2001805482101561052d576104f161052992600392610fac565b50928354169260018101549461051f60ff6002840154169261051883518096819301611133565b0384610fed565b5194859485610466565b0390f35b835163779ffa5760e11b8152600490fd5b8351633c58dd7f60e11b8152600490fd5b3461013f575f36600319011261013f57602060405173532f0df0896f353d8c3dd8cc134e8129da2a39488152f35b9181601f8401121561013f578235916001600160401b03831161013f576020838186019501011161013f57565b3461013f57608036600319011261013f576004356001600160401b03811161013f576105da90369060040161057d565b60443591906001600160a01b038316830361013f57610620610529936106126040519384926020840196606435926024359189611201565b03601f198101835282610fed565b5190206040519081529081906020820190565b3461013f57606036600319011261013f57600480356001600160401b0360243581811161013f57610667903690850161057d565b835f52600160205260409160018060a01b03835f2054161561080157610695855f52600160205260405f2090565b938685015481811642106107f157841c164210156107e157811580156107d6575b6107c6576106e16106cf865f52600260205260405f2090565b335f9081526020919091526040902090565b549586156107b8576106fe6106f588611249565b60088701610fac565b50906002820194610710865460ff1690565b6107ab578051602081019061072f816106128c336044358c8c89611201565b51902060018401540361079e575050610760926006959492600361075393016112ab565b805460ff19166001179055565b0161076b8154611373565b90556107773392611249565b907f424f39af416ecdb38d8b4e6cc7f0fbfa5b974239f035b1daf01ec06036da40af5f80a4005b51630a92105f60e01b8152fd5b5163a89ac15160e01b8152fd5b8351636a35b3b160e11b8152fd5b8251632efda62f60e11b81528690fd5b506107d082116106b6565b82516302c88e7b60e31b81528690fd5b84516307ca988b60e31b81528890fd5b8251633c58dd7f60e11b81528690fd5b3461013f5760408060031936011261013f5760048035916001600160401b039160243583811161013f57610848903690830161057d565b9390855f52600160205260018060a01b0380855f205416156109b857865f526001602052845f20541633036109a857610889865f52600160205260405f2090565b948386019283549081871c1642106109985760ff8160801c166109885760881c60ff1661097857600686019384541561096a5750926109076109159360079693867fbf6a734d7751701c5c3fc8f18bb23d612d4ac2042db566a9c15a2403acfc0f00999761091a575b5050805460ff60801b1916600160801b179055565b5490519384930190836115be565b0390a2005b61092e91610929913691611381565b611751565b80519081156108f257602080610948938301019101611479565b5050509015610958575b806108f2565b610964908888016114fb565b5f610952565b855163553c923360e11b8152fd5b845163475a253560e01b81528490fd5b8551632e0bff6760e11b81528590fd5b855163339f328760e01b81528590fd5b83516330cd747160e01b81528390fd5b8451633c58dd7f60e11b81528490fd5b3461013f57602036600319011261013f5760048035805f52600160205260018060a01b039160409280845f20541615610b2057825f52600160205280845f2054163303610b1157610a21835f52600160205260405f2090565b828101805460ff8160881c168015610b04575b610af457861c6001600160401b03164210610ae4576006820154610ae457805461ffff60881b191661010160881b17905560038101925f845494555f80808087610a8a6102f76102f7895460018060a01b031690565b5af1610a9461106f565b5015610ad657505493519182529092166001600160a01b0316917f10ac8d14a53dda5bc4e113ce994f1bd21a8fd255e0a037e02a8f3ce0d4481cd790602090a3005b8551630ec6ac4160e21b8152fd5b85516385b0461160e01b81528490fd5b865163475a253560e01b81528590fd5b5060ff8160901c16610a34565b5082516330cd747160e01b8152fd5b508251633c58dd7f60e11b8152fd5b608036600319011261013f5760046001600160401b03813581811161013f57610b5b903690840161057d565b9060243583811161013f57610b73903690860161057d565b604493919335906064353415610ca95742831115610c985782811115610c98578690815f54998a98610ba48a6115d5565b5f55610bb88a5f52600160205260405f2090565b80546001600160a01b0319163317815595610bd7898b60018a016112ab565b610be491600288016112ab565b34600386015584019416610c0e9085906001600160401b03166001600160401b0319825416179055565b83546fffffffffffffffff00000000000000001916911660401b6fffffffffffffffff000000000000000016178255600501610c4a905f199055565b54916040519283923396808360401c169216903490610c6994866115e3565b037f74fe2b332d03946e44fd38e8e53f359d0dea842a76a7c2b8f25651546b6bf78e91a3604051908152602090f35b604051632a0c9bb560e11b81528890fd5b6040516310e53ba160e11b81528890fd5b3461013f5760408060031936011261013f57600480355f8181526001602052839020546024359392906001600160a01b031615610e3357610d03825f52600160205260405f2090565b610d25610d19838301546001600160401b031690565b6001600160401b031690565b421015610e24578415610e1557610d476106cf845f52600260205260405f2090565b54610e065760080190600c82541015610df85750610db27f08afd45f6eb611ee29897dea761790019595b3ee59560c16c3764b4ee9b2b19691610dac610d8b611013565b3381528760208201525f87820152610da161104d565b606082015282611619565b54611249565b92610dbc84611373565b610de733610dd2865f52600260205260405f2090565b9060018060a01b03165f5260205260405f2090565b55519384523393806020810161034f565b835163a6d1eaff60e01b8152fd5b5082516342f06eaf60e11b8152fd5b508251633b87a56760e01b8152fd5b508251633777321d60e01b8152fd5b8251633c58dd7f60e11b8152fd5b3461013f575f36600319011261013f576020604051600c8152f35b989592610e8e6104939d9b98959c9996938b610e9c94602061018092839260018060a01b0316815201528c0190610441565b908a820360408c0152610441565b996060890152608088015260a0870152151560c0860152151560e0850152610100840152610120830152610140820152610160818403910152610441565b3461013f57602036600319011261013f576004355f818152600160205260409020546001600160a01b03919082161561018c575f52600160205260405f20908154169061052960038201549260048301546001600160401b03906008850154600686015491600587015493610f51600189016111c4565b91610f6a6007610f6360028c016111c4565b9a016111c4565b966040519a8b9a60ff8460881c169560ff8560801c1695808660401c169516938d610e5c565b3461013f575f36600319011261013f5760205f54604051908152f35b8054821015610fc5575f5260205f209060021b01905f90565b634e487b7160e01b5f52603260045260245ffd5b634e487b7160e01b5f52604160045260245ffd5b90601f801991011681019081106001600160401b0382111761100e57604052565b610fd9565b60405190608082018281106001600160401b0382111761100e57604052565b6001600160401b03811161100e57601f01601f191660200190565b60405190602082018281106001600160401b0382111761100e576040525f8252565b3d15611099573d9061108082611032565b9161108e6040519384610fed565b82523d5f602084013e565b606090565b5f526001602052600460405f20015460ff8160881c166110f55760ff8160801c166110ef576001600160401b039081811642106110e95760401c1642106110e457600290565b600190565b50505f90565b50600390565b50600490565b90600182811c92168015611129575b602083101461111557565b634e487b7160e01b5f52602260045260245ffd5b91607f169161110a565b80545f9392611141826110fb565b918282526020936001916001811690815f146111a55750600114611167575b5050505050565b90939495505f92919252835f2092845f945b83861061119157505050500101905f80808080611160565b805485870183015294019385908201611179565b60ff19168685015250505090151560051b010191505f80808080611160565b906111df6111d89260405193848092611133565b0383610fed565b565b908060209392818452848401375f828201840152601f01601f1916010190565b916060939695949161121b916080855260808501916111e1565b60208301969096526001600160a01b031660408201520152565b634e487b7160e01b5f52601160045260245ffd5b5f1981019190821161125757565b611235565b601f821161126957505050565b5f5260205f20906020601f840160051c830193106112a1575b601f0160051c01905b818110611296575050565b5f815560010161128b565b9091508190611282565b9092916001600160401b03811161100e576112d0816112ca84546110fb565b8461125c565b5f601f821160011461130e5781906112ff9394955f92611303575b50508160011b915f199060031b1c19161790565b9055565b013590505f806112eb565b601f19821694611321845f5260205f2090565b915f5b87811061135b575083600195969710611342575b505050811b019055565b01355f19600384901b60f8161c191690555f8080611338565b90926020600181928686013581550194019101611324565b906001820180921161125757565b92919261138d82611032565b9161139b6040519384610fed565b82948184528183011161013f578281602093845f960137010152565b81601f8201121561013f5780516113cd81611032565b926113db6040519485610fed565b8184526020828401011161013f576104939160208085019101610420565b91909160608184031261013f57604051906001600160401b0390606083018281118482101761100e576040528294815183811161013f578161143c9184016113b7565b8452602082015183811161013f57816114569184016113b7565b6020850152604082015192831161013f5760409261147492016113b7565b910152565b9060a08282031261013f578151801515810361013f57926020830151906001600160401b039182811161013f57836114b29186016113b7565b93604081015183811161013f57846114cb9183016113b7565b93606082015184811161013f57816114e49184016113b7565b93608083015190811161013f5761049392016113f9565b91909182516001600160401b03811161100e5761151c816112ca84546110fb565b602080601f8311600114611558575081906112ff9394955f9261154d5750508160011b915f199060031b1c19161790565b015190505f806112eb565b90601f1983169561156c855f5260205f2090565b925f905b8882106115a65750508360019596971061158e57505050811b019055565b01515f1960f88460031b161c191690555f8080611338565b80600185968294968601518155019501930190611570565b604090610493939281528160208201520190611133565b5f1981146112575760010190565b93916060939695916115fd916080875260808701916111e1565b9560208501526001600160401b03809216604085015216910152565b919082546801000000000000000081101561100e5761164090600194600182018155610fac565b61173e57815181546001600160a01b0319166001600160a01b0391909116178155606060036020926020850151600182015561169160408601511515600283019060ff801983541691151516179055565b01920151938451916001600160401b03831161100e576116bb836116b586546110fb565b8661125c565b602091601f84116001146116ed57505081906112ff9394955f9261154d5750508160011b915f199060031b1c19161790565b95601f92919219841696611704865f5260205f2090565b935f915b898310611727575050508360019596971061158e57505050811b019055565b838501518655948501949381019391810191611708565b634e487b7160e01b5f525f60045260245ffd5b5f806020928381519101826108025af19061176a61106f565b91156117bc57815182019060408382840193031261013f57808301516001600160401b039081811161013f5783836117a4928701016113b7565b50604084015190811161013f576104939301016113b7565b81519101fdfea2646970667358221220bb524d7fa313c219d4c0c51edbe58e6455b9a28a494b370e8e9375f898fb5b6664736f6c63430008180033",
  "linkReferences": {},
  "deployedLinkReferences": {},
  "immutableReferences": {},
  "inputSourceName": "project/contracts/CipherBloomJudge.sol",
  "buildInfoId": "solc-0_8_24-80ca586d7538bcea50fe4da9f51ccbed91aadb2a"
}